{
  "_format": "hh3-artifact-1",
  "contractName": "DonateVault",
  "sourceName": "contracts/DonateVault.sol",
  "abi": [
    {
      "inputs": [
        {
          "internalType": "address",
          "name": "_owner",
          "type": "address"
        }
      ],
      "stateMutability": "nonpayable",
      "type": "constructor"
    },
    {
      "anonymous": false,
      "inputs": [
        {
          "indexed": true,
          "internalType": "address",
          "name": "donor",
          "type": "address"
        },
        {
          "indexed": false,
          "internalType": "uint256",
          "name": "amount",
          "type": "uint256"
        },
        {
          "indexed": false,
          "internalType": "string",
          "name": "message",
          "type": "string"
        },
        {
          "indexed": false,
          "internalType": "uint256",
          "name": "timestamp",
          "type": "uint256"
        }
      ],
      "name": "DonationReceived",
      "type": "event"
    },
    {
      "anonymous": false,
      "inputs": [
        {
          "indexed": true,
          "internalType": "address",
          "name": "oldOwner",
          "type": "address"
        },
        {
          "indexed": true,
          "internalType": "address",
          "name": "newOwner",
          "type": "address"
        }
      ],
      "name": "OwnerChanged",
      "type": "event"
    },
    {
      "anonymous": false,
      "inputs": [
        {
          "indexed": true,
          "internalType": "address",
          "name": "to",
          "type": "address"
        },
        {
          "indexed": false,
          "internalType": "uint256",
          "name": "amount",
          "type": "uint256"
        },
        {
          "indexed": false,
          "internalType": "uint256",
          "name": "timestamp",
          "type": "uint256"
        }
      ],
      "name": "Withdrawn",
      "type": "event"
    },
    {
      "inputs": [],
      "name": "contractBalance",
      "outputs": [
        {
          "internalType": "uint256",
          "name": "",
          "type": "uint256"
        }
      ],
      "stateMutability": "view",
      "type": "function"
    },
    {
      "inputs": [
        {
          "internalType": "string",
          "name": "_message",
          "type": "string"
        }
      ],
      "name": "donate",
      "outputs": [],
      "stateMutability": "payable",
      "type": "function"
    },
    {
      "inputs": [
        {
          "internalType": "uint256",
          "name": "index",
          "type": "uint256"
        }
      ],
      "name": "getDonation",
      "outputs": [
        {
          "internalType": "address",
          "name": "donor",
          "type": "address"
        },
        {
          "internalType": "uint256",
          "name": "amount",
          "type": "uint256"
        },
        {
          "internalType": "string",
          "name": "message",
          "type": "string"
        },
        {
          "internalType": "uint256",
          "name": "timestamp",
          "type": "uint256"
        }
      ],
      "stateMutability": "view",
      "type": "function"
    },
    {
      "inputs": [],
      "name": "getDonationCount",
      "outputs": [
        {
          "internalType": "uint256",
          "name": "",
          "type": "uint256"
        }
      ],
      "stateMutability": "view",
      "type": "function"
    },
    {
      "inputs": [
        {
          "internalType": "uint256",
          "name": "offset",
          "type": "uint256"
        },
        {
          "internalType": "uint256",
          "name": "limit",
          "type": "uint256"
        }
      ],
      "name": "getDonations",
      "outputs": [
        {
          "internalType": "address[]",
          "name": "donors",
          "type": "address[]"
        },
        {
          "internalType": "uint256[]",
          "name": "amounts",
          "type": "uint256[]"
        },
        {
          "internalType": "string[]",
          "name": "messages",
          "type": "string[]"
        },
        {
          "internalType": "uint256[]",
          "name": "timestamps",
          "type": "uint256[]"
        }
      ],
      "stateMutability": "view",
      "type": "function"
    },
    {
      "inputs": [],
      "name": "owner",
      "outputs": [
        {
          "internalType": "address",
          "name": "",
          "type": "address"
        }
      ],
      "stateMutability": "view",
      "type": "function"
    },
    {
      "inputs": [
        {
          "internalType": "address",
          "name": "_newOwner",
          "type": "address"
        }
      ],
      "name": "setOwner",
      "outputs": [],
      "stateMutability": "nonpayable",
      "type": "function"
    },
    {
      "inputs": [],
      "name": "totalDonated",
      "outputs": [
        {
          "internalType": "uint256",
          "name": "",
          "type": "uint256"
        }
      ],
      "stateMutability": "view",
      "type": "function"
    },
    {
      "inputs": [],
      "name": "withdraw",
      "outputs": [],
      "stateMutability": "nonpayable",
      "type": "function"
    },
    {
      "stateMutability": "payable",
      "type": "receive"
    }
  ],
  "bytecode": "0x6080604052348015600e575f5ffd5b506040516110b73803806110b7833981016040819052602b916064565b6001600160a01b03811615603e57806040565b335b5f80546001600160a01b0319166001600160a01b039290921691909117905550608f565b5f602082840312156073575f5ffd5b81516001600160a01b03811681146088575f5ffd5b9392505050565b61101b8061009c5f395ff3fe608060405260043610610086575f3560e01c80638b7afe2e116100575780638b7afe2e146102635780638da5cb5b14610275578063b5aebc80146102ab578063e55a62a8146102be578063ef07a81f146102d2575f5ffd5b8062b37044146101d757806313af4035146101ff5780633ccfd60b14610220578063767e154314610234575f5ffd5b366101d35760408051608081018252338152346020808301918252835190810184525f808252938301908152426060840152600180548082018255945282517fb10e2d527612073b26eecdfd717e6a320cf44b4afac2b0732d9fcbe2b7fa0cf6600490950294850180546001600160a01b0319166001600160a01b0390921691909117815591517fb10e2d527612073b26eecdfd717e6a320cf44b4afac2b0732d9fcbe2b7fa0cf785015551919290917fb10e2d527612073b26eecdfd717e6a320cf44b4afac2b0732d9fcbe2b7fa0cf8909101906101659082610c52565b506060820151816003015550503460025f8282546101839190610d21565b9091555050604080513481526060602082018190525f908201524281830152905133917f2018df2fd138b2916834021281dc1543d08a39c60f392b0bac9d5d60030189f9919081900360800190a2005b5f5ffd5b3480156101e2575f5ffd5b506101ec60025481565b6040519081526020015b60405180910390f35b34801561020a575f5ffd5b5061021e610219366004610d3a565b610301565b005b34801561022b575f5ffd5b5061021e610407565b34801561023f575f5ffd5b5061025361024e366004610d67565b610592565b6040516101f69493929190610def565b34801561026e575f5ffd5b50476101ec565b348015610280575f5ffd5b505f54610293906001600160a01b031681565b6040516001600160a01b0390911681526020016101f6565b61021e6102b9366004610ec4565b6108ce565b3480156102c9575f5ffd5b506001546101ec565b3480156102dd575f5ffd5b506102f16102ec366004610f32565b610a81565b6040516101f69493929190610f49565b5f546001600160a01b031633146103585760405162461bcd60e51b81526020600482015260166024820152752237b730ba32ab30bab63a1d103737ba1037bbb732b960511b60448201526064015b60405180910390fd5b6001600160a01b0381166103ae5760405162461bcd60e51b815260206004820152601960248201527f446f6e6174655661756c743a207a65726f206164647265737300000000000000604482015260640161034f565b5f80546040516001600160a01b03808516939216917fb532073b38c83145e3e5135377a08bf9aab55bc0fd7c1179cd4fb995d2a5159c91a35f80546001600160a01b0319166001600160a01b0392909216919091179055565b5f546001600160a01b031633146104595760405162461bcd60e51b81526020600482015260166024820152752237b730ba32ab30bab63a1d103737ba1037bbb732b960511b604482015260640161034f565b47806104a75760405162461bcd60e51b815260206004820181905260248201527f446f6e6174655661756c743a206e6f7468696e6720746f207769746864726177604482015260640161034f565b5f80546040516001600160a01b039091169083908381818185875af1925050503d805f81146104f1576040519150601f19603f3d011682016040523d82523d5f602084013e6104f6565b606091505b50509050806105475760405162461bcd60e51b815260206004820152601c60248201527f446f6e6174655661756c743a207769746864726177206661696c656400000000604482015260640161034f565b5f54604080518481524260208201526001600160a01b03909216917f92ccf450a286a957af52509bc1c9939d1a6a481783e142e41e2499f0bb66ebc691015b60405180910390a25050565b6001546060908190819081908087106105fe57604080515f80825260208201818152828401828152606084019094529192906105de565b60608152602001906001900390816105c95790505b50604080515f8082526020820190925290509450945094509450506108c5565b5f6106098883610f80565b90505f878210610619578761061b565b815b90508067ffffffffffffffff81111561063657610636610bba565b60405190808252806020026020018201604052801561065f578160200160208202803683370190505b5096508067ffffffffffffffff81111561067b5761067b610bba565b6040519080825280602002602001820160405280156106a4578160200160208202803683370190505b5095508067ffffffffffffffff8111156106c0576106c0610bba565b6040519080825280602002602001820160405280156106f357816020015b60608152602001906001900390816106de5790505b5094508067ffffffffffffffff81111561070f5761070f610bba565b604051908082528060200260200182016040528015610738578160200160208202803683370190505b5093505f5b818110156108c0575f6001828c6107548389610f80565b61075e9190610f80565b6107689190610f80565b8154811061077857610778610f93565b5f918252602090912060049091020180548a519192506001600160a01b0316908a90849081106107aa576107aa610f93565b60200260200101906001600160a01b031690816001600160a01b03168152505080600101548883815181106107e1576107e1610f93565b6020026020010181815250508060020180546107fc90610bce565b80601f016020809104026020016040519081016040528092919081815260200182805461082890610bce565b80156108735780601f1061084a57610100808354040283529160200191610873565b820191905f5260205f20905b81548152906001019060200180831161085657829003601f168201915b505050505087838151811061088a5761088a610f93565b602002602001018190525080600301548683815181106108ac576108ac610f93565b60209081029190910101525060010161073d565b505050505b92959194509250565b5f341161091d5760405162461bcd60e51b815260206004820152601f60248201527f446f6e6174655661756c743a20616d6f756e74206d757374206265203e203000604482015260640161034f565b61011881111561096f5760405162461bcd60e51b815260206004820152601d60248201527f446f6e6174655661756c743a206d65737361676520746f6f206c6f6e67000000604482015260640161034f565b60016040518060800160405280336001600160a01b0316815260200134815260200184848080601f0160208091040260200160405190810160405280939291908181526020018383808284375f9201829052509385525050426020938401525083546001808201865594825290829020835160049092020180546001600160a01b0319166001600160a01b03909216919091178155908201519281019290925560408101519091906002820190610a269082610c52565b506060820151816003015550503460025f828254610a449190610d21565b909155505060405133907f2018df2fd138b2916834021281dc1543d08a39c60f392b0bac9d5d60030189f990610586903490869086904290610fa7565b5f5f60605f6001805490508510610ada5760405162461bcd60e51b815260206004820152601960248201527f446f6e6174655661756c743a206f7574206f662072616e676500000000000000604482015260640161034f565b5f60018681548110610aee57610aee610f93565b905f5260205f2090600402019050805f015f9054906101000a90046001600160a01b03168160010154826002018360030154818054610b2c90610bce565b80601f0160208091040260200160405190810160405280929190818152602001828054610b5890610bce565b8015610ba35780601f10610b7a57610100808354040283529160200191610ba3565b820191905f5260205f20905b815481529060010190602001808311610b8657829003601f168201915b505050505091509450945094509450509193509193565b634e487b7160e01b5f52604160045260245ffd5b600181811c90821680610be257607f821691505b602082108103610c0057634e487b7160e01b5f52602260045260245ffd5b50919050565b601f821115610c4d57805f5260205f20601f840160051c81016020851015610c2b5750805b601f840160051c820191505b81811015610c4a575f8155600101610c37565b50505b505050565b815167ffffffffffffffff811115610c6c57610c6c610bba565b610c8081610c7a8454610bce565b84610c06565b6020601f821160018114610cb2575f8315610c9b5750848201515b5f19600385901b1c1916600184901b178455610c4a565b5f84815260208120601f198516915b82811015610ce15787850151825560209485019460019092019101610cc1565b5084821015610cfe57868401515f19600387901b60f8161c191681555b50505050600190811b01905550565b634e487b7160e01b5f52601160045260245ffd5b80820180821115610d3457610d34610d0d565b92915050565b5f60208284031215610d4a575f5ffd5b81356001600160a01b0381168114610d60575f5ffd5b9392505050565b5f5f60408385031215610d78575f5ffd5b50508035926020909101359150565b5f8151808452602084019350602083015f5b82811015610db7578151865260209586019590910190600101610d99565b5093949350505050565b5f81518084528060208401602086015e5f602082860101526020601f19601f83011685010191505092915050565b608080825285519082018190525f90602087019060a0840190835b81811015610e315783516001600160a01b0316835260209384019390920191600101610e0a565b50508381036020850152610e458188610d87565b9150508281036040840152805f865180845260208401925060208160051b850101602089015f5b83811015610e9e57601f19878403018652610e88838351610dc1565b6020968701969093509190910190600101610e6c565b50508092508681036060880152610eb58189610d87565b9b9a5050505050505050505050565b5f5f60208385031215610ed5575f5ffd5b823567ffffffffffffffff811115610eeb575f5ffd5b8301601f81018513610efb575f5ffd5b803567ffffffffffffffff811115610f11575f5ffd5b856020828401011115610f22575f5ffd5b6020919091019590945092505050565b5f60208284031215610f42575f5ffd5b5035919050565b60018060a01b0385168152836020820152608060408201525f610f6f6080830185610dc1565b905082606083015295945050505050565b81810381811115610d3457610d34610d0d565b634e487b7160e01b5f52603260045260245ffd5b84815260606020820152826060820152828460808301375f608084830101525f6080601f19601f86011683010190508260408301529594505050505056fea264697066735822122029ef0cb2cea96a33d1a477d94468bb9dab85310fcaddf1365d97cc976f35a1ba64736f6c634300081c0033",
  "linkReferences": {},
  "deployedLinkReferences": {},
  "immutableReferences": {},
  "inputSourceName": "project/contracts/DonateVault.sol",
  "buildInfoId": "solc-0_8_28-a711e44f39d12e4570af6f6ba82376f0de5d568c"
}